:100000000C9463000C948B000C948B000C948B006C
:100010000C948B000C948B000C948B000C949E041D
:100020000C948B000C948B000C948B000C941E058C
:100030000C948B000C948B000C948B000C948B0014
:100040000C9454040C948B000C948B000C948B0037
:100050000C948B000C948B000C948B000C948B00F4
:100060000C948B000C948B000200000000240027ED
:10007000002A0000000000250028002B00000000DE
:1000800000230026002900040404040404040402DC
:100090000202020202030303030303010204081025
:1000A00020408001020408102001020408102000F2
:1000B0000000080002010000030407000000000027
:1000C00000000000A60711241FBECFEFD8E0DEBF5E
:1000D000CDBF11E0A0E0B1E0EEEDF4E102C005908B
:1000E0000D92A231B107D9F722E0A2E1B1E001C03F
:1000F0001D92AC33B207E1F710E0C3E6D0E004C0D4
:100100002197FE010E94670AC236D107C9F70E94F3
:100110001F060C946D0A0C940000833081F028F4C3
:10012000813099F08230A9F008958730A9F08830A5
:10013000C9F08430B1F4809180008F7D03C080913C
:1001400080008F7780938000089584B58F7784BD79
:10015000089584B58F7DFBCF8091B0008F77809319
:10016000B00008958091B0008F7DF9CFCF93DF93D9
:10017000282F30E0F901E155FF4F8491F901E55650
:10018000FF4FD491F901E957FF4FC491CC23A1F05F
:1001900081110E948D00EC2FF0E0EE0FFF1FE3585D
:1001A000FF4FA591B491EC91ED2381E090E009F42B
:1001B00080E0DF91CF91089580E090E0FACF1F9327
:1001C000CF93DF93282F30E0F901E155FF4F849161
:1001D000F901E556FF4FD491F901E957FF4FC4915A
:1001E000CC23A9F0162F81110E948D00EC2FF0E096
:1001F000EE0FFF1FED58FF4FA591B4918FB7F89404
:10020000EC91111108C0D095DE23DC938FBFDF91F4
:10021000CF911F910895DE2BF8CFCF93DF9390E01D
:10022000FC01E556FF4F249189579F4FFC018491B3
:100230008823D1F090E0880F991FFC01E759FF4F08
:10024000A591B491FC01ED58FF4FC591D491611176
:100250000EC09FB7F8948C91E22FE0958E238C937B
:100260002881E223E8839FBFDF91CF9108958FB764
:10027000F894EC91E22BEC938FBFF6CF3FB7F89454
:1002800080912B0190912C01A0912D01B0912E0114
:1002900026B5A89B05C02F3F19F00196A11DB11DE1
:1002A0003FBFBA2FA92F982F8827BC01CD01620F1D
:1002B000711D811D911D42E0660F771F881F991FD8
:1002C0004A95D1F708958F929F92AF92BF92CF92A5
:1002D000DF92EF92FF920E943E014B015C0184E6A7
:1002E000C82ED12CE12CF12C0E943E01681979090D
:1002F0008A099B09683E734081059105A8F321E0B6
:10030000C21AD108E108F10888EE880E83E0981E31
:10031000A11CB11CC114D104E104F10429F7FF9020
:10032000EF90DF90CF90BF90AF909F908F90089507
:10033000CF92DF92EF92FF92CF93DF93EC01603286
:1003400082E07807CCF5653B710514F064EB70E052
:10035000898128E830E0281B310987FD3395220F79
:10036000331F220F331F6901330FEE08FF088A8104
:1003700028E532E0281B310987FD3395220F331F12
:10038000220F331F032E000C440B550B2C193D0973
:100390004E095F09DB0177FF02C0B0E0A0E00E94D8
:1003A000120824EB30E040E050E00E94E807C20E63
:1003B000D31EE41EF51EB601E881EC3070F52981EC
:1003C00088E890E0821B910927FD9395880F991F7B
:1003D000880F991F681779077CF02A8188E592E0D9
:1003E000821B910927FD9395880F991F880F991FEC
:1003F000681779070CF4CB010297880F991F4FB744
:10040000F8942E2F30E0F901EE0FFF1FE20FF31FDB
:10041000E85EFD4F928381834FBFDF91CF91FF90C4
:10042000EF90DF90CF9008951F93CF93DF93EC016F
:100430009881292F30E0F901EE0FFF1FE20FF31F23
:10044000E85EFD4F808186FD83C0162F9C3008F04A
:100450004EC061E0812F0E940D018881282F30E07D
:10046000F901EE0FFF1FE20FF31FE85EFD4F1F7350
:100470006081607C162B108319821A822CE0622F17
:100480000E945B0A829FB001112430E020E0AB01A2
:10049000420F531FFA01EE0FFF1FE40FF51FE85E36
:1004A000FD4F908196FD16C02F5F3F4F2C303105D8
:1004B00071F781110FC01092800082E0809381005B
:1004C0001092850010928400B19A80916F00826032
:1004D00080936F00E8818E2F90E0FC01EE0FFF1FEC
:1004E000E80FF91FE85EFD4F8081806480836AE534
:1004F00070E0CE010E9498018EE190E09E8F8D8F7A
:1005000080ED97E098878F8380E090E0A4E8B2E4E4
:10051000898F9A8FAB8FBC8F8AE198EFA2ECBDE3F5
:100520008D8B9E8BAF8BB88F1F8E18A219A21AA22B
:100530008DE290E09C838B83198A1A8A1B8A1C8A1D
:1005400019861A861B861C861E821D821FA218A66B
:10055000DF91CF911F9108956091E3017091E401C3
:100560008BE391E00E9414026091E5017091E60135
:1005700084E691E00E9414026091E7017091E80125
:100580008DE891E00E9414026091E9017091EA0106
:1005900086EB91E00C9414020F931F93CF93DF939B
:1005A000EC0110E000E088819981AA81BB81002ED6
:1005B00004C0B695A795979587950A94D2F7682FAA
:1005C00061708C810E94DF0000000000000061E08B
:1005D0008D810E94DF0000000000000060E08D813E
:1005E0000E94DF000F5F1F4F0E311105E1F661E041
:1005F0008E810E94DF0000000000000060E08E811C
:10060000DF91CF911F910F910C94DF00CF93DF9377
:10061000EC01188219821A821B828BE08C838DE098
:100620008D838CE08E8361E08BE00E940D0161E0A0
:100630008D810E940D0161E08E810E940D0160E0BC
:100640008C810E94DF0060E08D810E94DF0060E00D
:100650008E810E94DF00CE01DF91CF910C94CC02FD
:100660002F923F924F925F926F927F928F929F92C2
:10067000AF92BF92CF92DF92EF92FF920F931F93B0
:10068000CF93DF9300D000D0CDB7DEB79C838B83B0
:100690000E94AC02809117028111109217020B8107
:1006A0001C81580188E0A80EB11C27E0E22E22E050
:1006B000F22E33EFC32E31E0D32EF8016191719108
:1006C0008F01F601819191916F01681B790B072EC3
:1006D000000C880B990B0E94620920E030E048E48E
:1006E00052E40E94B808F70161937193819391934A
:1006F0007F010A151B0509F72FB7F89480912F0188
:1007000090913001A0913101B09132012FBF8C50F6
:100710009E4FAF4FBF4F8093FF0190930002A09375
:100720000102B0930202CC24C394D12C2FB7F894C9
:1007300080912F0190913001A0913101B09132014F
:100740002FBF4091FF015091000260910102709112
:10075000020284179507A607B70708F074C02FB7E1
:10076000F89480912F0190913001A0913101B091C6
:1007700032012FBF0A96A11DB11D809303029093F1
:100780000402A0930502B09306020BE311E087E098
:1007900092E09A83898383EFE82E81E0F82E260188
:1007A0000D2C000C66087708F701219031907F012D
:1007B000E981FA8181909190A190B190FA83E983C7
:1007C000C301B2010E946209A50194010E94EE09D1
:1007D0004B015C01B101330C880B990B0E9462093B
:1007E0009B01AC01C501B4010E944C080E942A097A
:1007F000F80127853089620F731FC8010E94980194
:10080000075D1F4FFBEFEF16F1E0FF0669F62FB70C
:10081000F89480912F0190913001A0913101B09115
:1008200032012FBF409103025091040260910502F2
:100830007091060284179507A607B70740F38FEF5C
:10084000C81AD80A73CFEB81FC8180819181909383
:10085000F4018093F301828193819093F601809358
:10086000F501848195819093F8018093F701868149
:1008700097819093FA018093F9010F900F900F9058
:100880000F90DF91CF911F910F91FF90EF90DF902C
:10089000CF90BF90AF909F908F907F906F905F9020
:1008A0004F903F902F9008951F920F920FB60F9286
:1008B00011242F933F938F939F93AF93BF93809176
:1008C0002F0190913001A0913101B091320130910E
:1008D0002A0123E0230F2D3758F50196A11DB11DE4
:1008E00020932A0180932F0190933001A09331012E
:1008F000B093320180912B0190912C01A0912D0198
:10090000B0912E010196A11DB11D80932B019093F2
:100910002C01A0932D01B0932E01BF91AF919F9117
:100920008F913F912F910F900FBE0F901F901895B0
:1009300026E8230F0296A11DB11DD2CF1F920F9260
:100940000FB60F9211242F933F934F935F936F93A2
:100950007F938F939F93AF93BF93EF93FF93809178
:100960001F0190912001A0912101B0912201892BBA
:100970008A2B8B2BC1F190911E0180910000892759
:100980008093000080911F0190912001A09121018E
:10099000B0912201181619061A061B069CF48091C4
:1009A0001F0190912001A0912101B0912201019796
:1009B000A109B10980931F0190932001A093210107
:1009C000B0932201FF91EF91BF91AF919F918F91D1
:1009D0007F916F915F914F913F912F910F900FBE3B
:1009E0000F901F90189580910001E8E6F0E0E491E7
:1009F0009FEF90930001E13051F030F0E23069F068
:100A000060E00E94DF00DECF10926E00F9CF90917F
:100A10006F009D7F90936F00F3CF909170009D7F4A
:100A20009093700091E09093B0009091B100987F06
:100A300094609093B1001092B300E2CF1F920F9296
:100A40000FB60F9211242F933F934F935F936F93A1
:100A50007F938F939F93AF93BF93CF93DF93EF9346
:100A6000FF9380911D01C0911C01D0E087FF24C03D
:100A7000109285001092840080911D018F5F8093F9
:100A80001D0180911D01082E000C990B8C179D07EC
:100A900024F480911D018C30C4F1809184009091E8
:100AA0008500049680349C4908F47AC080918400C3
:100AB00090918500049676C080911D01082E000C4F
:100AC000990B8C179D07C4F6E0911D018E2FEE0F38
:100AD000990BFC01EE0FFF1FE80FF91FE85EFD4FB9
:100AE000808186FFC9CFE0911D018E2FEE0F990BFB
:100AF000FC01EE0FFF1FE80FF91FE85EFD4F80813C
:100B000060E08F730E94DF00B7CF209184003091A6
:100B10008500E0911D018E2FEE0F990BFC01EE0F69
:100B2000FF1FE80FF91FE85EFD4F81819281820F60
:100B3000931F9093890080938800E0911D018E2F70
:100B4000EE0F990BFC01EE0FFF1FE80FF91FE85E97
:100B5000FD4F808186FF11C0E0911D018E2FEE0FA9
:100B6000990BFC01EE0FFF1FE80FF91FE85EFD4F28
:100B7000808161E08F730E94DF00FF91EF91DF9130
:100B8000CF91BF91AF919F918F917F916F915F9125
:100B90004F913F912F910F900FBE0F901F9018957E
:100BA00080E49CE990938900809388008FEF809384
:100BB0001D01E3CFCF92DF92EF92FF920F931F932D
:100BC000E82FF92F05C0015011092109310961F100
:100BD000908196239417B9F305C00150110921099A
:100BE000310911F1908196239413F7CFC12CD12CA8
:100BF000E12CF12C0AC08FEFC81AD80AE80AF80ACB
:100C00000C151D052E053F0579F08081862384177C
:100C100091F36C2D7D2D8E2D9F2D1F910F91FF90A7
:100C2000EF90DF90CF90089560E070E080E090E07A
:100C30001F910F91FF90EF90DF90CF9008957894DF
:100C400084B5826084BD84B5816084BD85B58260D1
:100C500085BD85B5816085BD80916E008160809382
:100C60006E001092810080918100826080938100EB
:100C700080918100816080938100809180008160FB
:100C8000809380008091B10084608093B100809156
:100C9000B00081608093B00080917A00846080937E
:100CA0007A0080917A00826080937A0080917A0045
:100CB000816080937A0080917A00806880937A00C6
:100CC0001092C10060E089E00E940D0161E088E0BF
:100CD0000E940D0160E086E00E940D0160E087E067
:100CE0000E940D0182E090E09093E4018093E30183
:100CF00083E090E09093E6018093E50184E090E04A
:100D00009093E8018093E70185E090E09093EA01F9
:100D10008093E9010E94AC02109217028AE590E0EC
:100D20009093F4018093F3019093F6018093F50181
:100D30009093F8018093F7019093FA018093F90161
:100D400088E090E09093E0018093DF0189E090E0FB
:100D50009093E2018093E10161E088E00E940D013F
:100D600060E08091E1010E940D018AE090E09093A3
:100D7000FC018093FB0184E190E09093FE0180935D
:100D8000FD0161E08AE00E940D0160E084E10E94C3
:100D90000D0110924B0110924A01109274011092B1
:100DA000730110929D0110929C011092C601109245
:100DB000C50185E090E00E94D207843229F064E208
:100DC00085E090E00E94DA0751EAC52E54ECD52E5A
:100DD00058E4E52E51E2F52E86E00E94B600019718
:100DE000A1F187E00E94B600019779F193E0292EE6
:100DF000312CC3E2D0E02AE3C22ED12CE12CF12C1D
:100E000088248A94982CA82C3FE3B32E4CE8442ED7
:100E100044E1542E46EB642E42E1742E86E00E949B
:100E2000B600892B09F187E00E94B600892BE1F01A
:100E300089E091E00E94300387E00E94B600892B90
:100E400009F069C00E946301F7CFC0922301D092DC
:100E50002401E0922501F092260183E291E00E94B4
:100E6000CC020E946301B8CF60E088E00E94DF00FE
:100E7000C1010197F1F761E088E00E94DF00CE0137
:100E80000197F1F760E088E00E94DF00E4EAF0E01B
:100E90006491E0E9F0E08491E82FF0E0EE0FFF1FAD
:100EA000E358FF4F8591949100EA16E821E030E085
:100EB000462F0E94DA05611571058105910529F01B
:100EC0006F5F7F4F8F4F9F4F9F70A70196010E94CA
:100ED000E8072115310541055105A1F02031310503
:100EE000410551057CF44092230150922401609207
:100EF00025017092260183E291E00E94CC020E94BB
:100F000063018CCF8092230190922401A09225014D
:100F1000B0922601F0CF80E092E4A9E0B1E08093A6
:100F2000230190932401A0932501B093260183E22D
:100F300091E00E94CC0281E091E00E943003C0E089
:100F4000D0E02097F1F30E940000FBCF83E291E014
:100F50000E94060383E391E00E940603EBE3F1E0C5
:100F60002FEF48EB5BE080911C018C30C8F491E0DE
:100F7000980F90931C01808390E0DC01AA0FBB1FA7
:100F8000A80FB91FA85EBD4F12965C934E931197A0
:100F9000108A1786B99681E0EF3DF80721F708958A
:100FA0002083F6CFF999FECF92BD81BDF89A99279B
:100FB00080B50895262FF999FECF1FBA92BD81BD45
:100FC00020BD0FB6F894FA9AF99A0FBE01960895CB
:100FD000052E97FB1EF400940E94FF0757FD07D0D3
:100FE0000E941A0807FC03D04EF40C94FF0750959A
:100FF0004095309521953F4F4F4F5F4F0895909505
:101000008095709561957F4F8F4F9F4F08950E94F7
:101010003C08A59F900DB49F900DA49F800D911D3D
:1010200011240895B7FF0C9407080E940708821B3B
:10103000930B0895A1E21A2EAA1BBB1BFD010DC044
:10104000AA1FBB1FEE1FFF1FA217B307E407F50778
:1010500020F0A21BB30BE40BF50B661F771F881F54
:10106000991F1A9469F760957095809590959B01EA
:10107000AC01BD01CF010895A29FB001B39FC00193
:10108000A39F700D811D1124911DB29F700D811DB4
:101090001124911D08955058BB27AA270E94630868
:1010A0000C94B4090E94A60938F00E94AD0920F002
:1010B00039F49F3F19F426F40C94A3090EF4E0953B
:1010C000E7FB0C949D09E92F0E94C50958F3BA1754
:1010D000620773078407950720F079F4A6F50C944E
:1010E000E7090EF4E0950B2EBA2FA02D0B01B901E4
:1010F00090010C01CA01A0011124FF27591B99F08E
:10110000593F50F4503E68F11A16F040A22F232F99
:10111000342F4427585FF3CF469537952795A795E9
:10112000F0405395C9F77EF41F16BA0B620B730B90
:10113000840BBAF09150A1F0FF0FBB1F661F771F01
:10114000881FC2F70EC0BA0F621F731F841F48F4B6
:10115000879577956795B795F7959E3F08F0B0CF3F
:101160009395880F08F09927EE0F97958795089526
:101170000E94CC080C94B4090E94AD0958F00E945A
:10118000A60940F029F45F3F29F00C949D09511104
:101190000C94E8090C94A3090E94C50968F39923EB
:1011A000B1F3552391F3951B550BBB27AA27621763
:1011B0007307840738F09F5F5F4F220F331F441F70
:1011C000AA1FA9F335D00E2E3AF0E0E832D09150A4
:1011D0005040E695001CCAF72BD0FE2F29D0660F91
:1011E000771F881FBB1F261737074807AB07B0E8D4
:1011F00009F0BB0B802DBF01FF2793585F4F3AF0DA
:101200009E3F510578F00C949D090C94E8095F3FCE
:10121000E4F3983ED4F3869577956795B795F7955F
:101220009F5FC9F7880F911D9695879597F9089547
:10123000E1E0660F771F881FBB1F621773078407E3
:10124000BA0720F0621B730B840BBA0BEE1F88F7F2
:10125000E09508950E9431096894B1110C94E80951
:1012600008950E94CD0988F09F5798F0B92F9927CB
:10127000B751B0F0E1F0660F771F881F991F1AF081
:10128000BA95C9F714C0B13091F00E94E709B1E0F6
:1012900008950C94E709672F782F8827B85F39F0F5
:1012A000B93FCCF3869577956795B395D9F73EF41A
:1012B00090958095709561957F4F8F4F9F4F0895C2
:1012C000E89409C097FB3EF49095809570956195E0
:1012D0007F4F8F4F9F4F9923A9F0F92F96E9BB2796
:1012E0009395F695879577956795B795F111F8CF12
:1012F000FAF4BB0F11F460FF1BC06F5F7F4F8F4F7D
:101300009F4F16C0882311F096E911C0772321F072
:101310009EE8872F762F05C0662371F096E8862F0A
:1013200070E060E02AF09A95660F771F881FDAF761
:10133000880F9695879597F9089597F99F6780E8A4
:1013400070E060E008959FEF80EC089500240A9417
:101350001616170618060906089500240A94121690
:101360001306140605060895092E0394000C11F4C3
:10137000882352F0BB0F40F4BF2B11F460FF04C070
:101380006F5F7F4F8F4F9F4F089557FD9058440FC9
:10139000551F59F05F3F71F04795880F97FB991FD4
:1013A00061F09F3F79F08795089512161306140691
:1013B000551FF2CF4695F1DF08C01616170618061E
:1013C000991FF1CF86957105610508940895E894F9
:1013D000BB2766277727CB0197F908950E94010A5A
:1013E0000C94B4090E94A60938F00E94AD0920F0BF
:1013F000952311F00C949D090C94A30911240C94CD
:10140000E8090E94C50970F3959FC1F3950F50E05C
:10141000551F629FF001729FBB27F00DB11D639FA6
:10142000AA27F00DB11DAA1F649F6627B00DA11D4C
:10143000661F829F2227B00DA11D621F739FB00DF2
:10144000A11D621F839FA00D611D221F749F332762
:10145000A00D611D231F849F600D211D822F762FFB
:101460006A2F11249F5750409AF0F1F088234AF0D8
:10147000EE0FFF1FBB1F661F771F881F9150504044
:10148000A9F79E3F510580F00C949D090C94E80942
:101490005F3FE4F3983ED4F3869577956795B795CB
:1014A000F795E7959F5FC1F7FE2B880F911D9695E5
:1014B000879597F90895991B79E004C0991F9617AD
:1014C00008F0961B881F7A95C9F780950895EE0F4E
:0E14D000FF1F0590F491E02D0994F894FFCFD2
:1014DE00FF5A005A005A005A0046006E003C00782F
:0214EE000000FC
:00000001FF
